{
  "_format": "hh-sol-artifact-1",
  "contractName": "VotingContract",
  "sourceName": "contracts/VotingContract.sol",
  "abi": [
    {
      "inputs": [],
      "stateMutability": "nonpayable",
      "type": "constructor"
    },
    {
      "anonymous": false,
      "inputs": [
        {
          "indexed": true,
          "internalType": "uint256",
          "name": "candidateId",
          "type": "uint256"
        },
        {
          "indexed": false,
          "internalType": "string",
          "name": "age",
          "type": "string"
        },
        {
          "indexed": false,
          "internalType": "string",
          "name": "name",
          "type": "string"
        },
        {
          "indexed": false,
          "internalType": "string",
          "name": "image",
          "type": "string"
        },
        {
          "indexed": false,
          "internalType": "uint256",
          "name": "voteCount",
          "type": "uint256"
        },
        {
          "indexed": false,
          "internalType": "address",
          "name": "_address",
          "type": "address"
        },
        {
          "indexed": false,
          "internalType": "string",
          "name": "ipfs",
          "type": "string"
        }
      ],
      "name": "CandidateCreate",
      "type": "event"
    },
    {
      "anonymous": false,
      "inputs": [
        {
          "indexed": true,
          "internalType": "uint256",
          "name": "voter_voterId",
          "type": "uint256"
        },
        {
          "indexed": false,
          "internalType": "string",
          "name": "voter_name",
          "type": "string"
        },
        {
          "indexed": false,
          "internalType": "string",
          "name": "voter_image",
          "type": "string"
        },
        {
          "indexed": false,
          "internalType": "address",
          "name": "voter_address",
          "type": "address"
        },
        {
          "indexed": false,
          "internalType": "uint256",
          "name": "voter_allowed",
          "type": "uint256"
        },
        {
          "indexed": false,
          "internalType": "bool",
          "name": "voter_voted",
          "type": "bool"
        },
        {
          "indexed": false,
          "internalType": "uint256",
          "name": "voter_vote",
          "type": "uint256"
        },
        {
          "indexed": false,
          "internalType": "string",
          "name": "voter_ipfs",
          "type": "string"
        }
      ],
      "name": "VoterCreated",
      "type": "event"
    },
    {
      "inputs": [],
      "name": "_candidateId",
      "outputs": [
        {
          "internalType": "uint256",
          "name": "_value",
          "type": "uint256"
        }
      ],
      "stateMutability": "view",
      "type": "function"
    },
    {
      "inputs": [],
      "name": "_voterId",
      "outputs": [
        {
          "internalType": "uint256",
          "name": "_value",
          "type": "uint256"
        }
      ],
      "stateMutability": "view",
      "type": "function"
    },
    {
      "inputs": [
        {
          "internalType": "uint256",
          "name": "",
          "type": "uint256"
        }
      ],
      "name": "candidateAddress",
      "outputs": [
        {
          "internalType": "address",
          "name": "",
          "type": "address"
        }
      ],
      "stateMutability": "view",
      "type": "function"
    },
    {
      "inputs": [
        {
          "internalType": "address",
          "name": "",
          "type": "address"
        }
      ],
      "name": "candidates",
      "outputs": [
        {
          "internalType": "uint256",
          "name": "candidateId",
          "type": "uint256"
        },
        {
          "internalType": "string",
          "name": "age",
          "type": "string"
        },
        {
          "internalType": "string",
          "name": "name",
          "type": "string"
        },
        {
          "internalType": "string",
          "name": "image",
          "type": "string"
        },
        {
          "internalType": "uint256",
          "name": "voteCount",
          "type": "uint256"
        },
        {
          "internalType": "address",
          "name": "candidateAddress",
          "type": "address"
        },
        {
          "internalType": "string",
          "name": "ipfs",
          "type": "string"
        }
      ],
      "stateMutability": "view",
      "type": "function"
    },
    {
      "inputs": [],
      "name": "getCandidate",
      "outputs": [
        {
          "internalType": "address[]",
          "name": "",
          "type": "address[]"
        }
      ],
      "stateMutability": "view",
      "type": "function"
    },
    {
      "inputs": [
        {
          "internalType": "address",
          "name": "_address",
          "type": "address"
        }
      ],
      "name": "getCandidateData",
      "outputs": [
        {
          "internalType": "string",
          "name": "",
          "type": "string"
        },
        {
          "internalType": "string",
          "name": "",
          "type": "string"
        },
        {
          "internalType": "uint256",
          "name": "",
          "type": "uint256"
        },
        {
          "internalType": "string",
          "name": "",
          "type": "string"
        },
        {
          "internalType": "uint256",
          "name": "",
          "type": "uint256"
        },
        {
          "internalType": "string",
          "name": "",
          "type": "string"
        },
        {
          "internalType": "address",
          "name": "",
          "type": "address"
        }
      ],
      "stateMutability": "view",
      "type": "function"
    },
    {
      "inputs": [],
      "name": "getCandidateLength",
      "outputs": [
        {
          "internalType": "uint256",
          "name": "",
          "type": "uint256"
        }
      ],
      "stateMutability": "view",
      "type": "function"
    },
    {
      "inputs": [],
      "name": "getVotedVoterList",
      "outputs": [
        {
          "internalType": "address[]",
          "name": "",
          "type": "address[]"
        }
      ],
      "stateMutability": "view",
      "type": "function"
    },
    {
      "inputs": [
        {
          "internalType": "address",
          "name": "_address",
          "type": "address"
        }
      ],
      "name": "getVoterData",
      "outputs": [
        {
          "internalType": "uint256",
          "name": "",
          "type": "uint256"
        },
        {
          "internalType": "string",
          "name": "",
          "type": "string"
        },
        {
          "internalType": "string",
          "name": "",
          "type": "string"
        },
        {
          "internalType": "address",
          "name": "",
          "type": "address"
        },
        {
          "internalType": "string",
          "name": "",
          "type": "string"
        },
        {
          "internalType": "uint256",
          "name": "",
          "type": "uint256"
        },
        {
          "internalType": "bool",
          "name": "",
          "type": "bool"
        }
      ],
      "stateMutability": "view",
      "type": "function"
    },
    {
      "inputs": [],
      "name": "getVoterLength",
      "outputs": [
        {
          "internalType": "uint256",
          "name": "",
          "type": "uint256"
        }
      ],
      "stateMutability": "view",
      "type": "function"
    },
    {
      "inputs": [],
      "name": "getVoterList",
      "outputs": [
        {
          "internalType": "address[]",
          "name": "",
          "type": "address[]"
        }
      ],
      "stateMutability": "view",
      "type": "function"
    },
    {
      "inputs": [
        {
          "internalType": "address",
          "name": "_address",
          "type": "address"
        },
        {
          "internalType": "string",
          "name": "_age",
          "type": "string"
        },
        {
          "internalType": "string",
          "name": "_name",
          "type": "string"
        },
        {
          "internalType": "string",
          "name": "_image",
          "type": "string"
        },
        {
          "internalType": "string",
          "name": "_ipfs",
          "type": "string"
        }
      ],
      "name": "setCandidate",
      "outputs": [],
      "stateMutability": "nonpayable",
      "type": "function"
    },
    {
      "inputs": [
        {
          "internalType": "address",
          "name": "_candidateAddress",
          "type": "address"
        },
        {
          "internalType": "uint256",
          "name": "_candidateVoteId",
          "type": "uint256"
        }
      ],
      "name": "vote",
      "outputs": [],
      "stateMutability": "nonpayable",
      "type": "function"
    },
    {
      "inputs": [
        {
          "internalType": "uint256",
          "name": "",
          "type": "uint256"
        }
      ],
      "name": "votedVoters",
      "outputs": [
        {
          "internalType": "address",
          "name": "",
          "type": "address"
        }
      ],
      "stateMutability": "view",
      "type": "function"
    },
    {
      "inputs": [
        {
          "internalType": "address",
          "name": "_address",
          "type": "address"
        },
        {
          "internalType": "string",
          "name": "_name",
          "type": "string"
        },
        {
          "internalType": "string",
          "name": "_image",
          "type": "string"
        },
        {
          "internalType": "string",
          "name": "_ipfs",
          "type": "string"
        }
      ],
      "name": "voterRight",
      "outputs": [],
      "stateMutability": "nonpayable",
      "type": "function"
    },
    {
      "inputs": [
        {
          "internalType": "address",
          "name": "",
          "type": "address"
        }
      ],
      "name": "voters",
      "outputs": [
        {
          "internalType": "uint256",
          "name": "voter_voterId",
          "type": "uint256"
        },
        {
          "internalType": "string",
          "name": "voter_name",
          "type": "string"
        },
        {
          "internalType": "string",
          "name": "voter_image",
          "type": "string"
        },
        {
          "internalType": "address",
          "name": "voter_address",
          "type": "address"
        },
        {
          "internalType": "uint256",
          "name": "voter_allowed",
          "type": "uint256"
        },
        {
          "internalType": "bool",
          "name": "voter_voted",
          "type": "bool"
        },
        {
          "internalType": "uint256",
          "name": "voter_vote",
          "type": "uint256"
        },
        {
          "internalType": "string",
          "name": "voter_ipfs",
          "type": "string"
        }
      ],
      "stateMutability": "view",
      "type": "function"
    },
    {
      "inputs": [
        {
          "internalType": "uint256",
          "name": "",
          "type": "uint256"
        }
      ],
      "name": "votersAddress",
      "outputs": [
        {
          "internalType": "address",
          "name": "",
          "type": "address"
        }
      ],
      "stateMutability": "view",
      "type": "function"
    },
    {
      "inputs": [],
      "name": "votingOrganizer",
      "outputs": [
        {
          "internalType": "address",
          "name": "",
          "type": "address"
        }
      ],
      "stateMutability": "view",
      "type": "function"
    }
  ],
  "bytecode": "0x6080604052348015600f57600080fd5b5033600260006101000a81548173ffffffffffffffffffffffffffffffffffffffff021916908373ffffffffffffffffffffffffffffffffffffffff1602179055506128dc806100606000396000f3fe608060405234801561001057600080fd5b50600436106101165760003560e01c80638ab66a90116100a2578063a738896711610071578063a738896714610334578063b28d92ae14610352578063b9be315214610370578063c91ec7121461038e578063f7522a83146103aa57610116565b80638ab66a90146102735780638e945685146102a95780638fb4cd80146102c7578063a3ec138d146102fd57610116565b806343242daa116100e957806343242daa146101bb5780635cc48aa7146101eb5780635f74bbde1461020957806370218b85146102255780637831ffb31461024357610116565b80630361419e1461011b57806305ad45a4146101375780632a466ac7146101555780633a88251a1461018b575b600080fd5b61013560048036038101906101309190611bb1565b6103c8565b005b61013f610676565b60405161014c9190611c85565b60405180910390f35b61016f600480360381019061016a9190611ca0565b610683565b6040516101829796959493929190611d5b565b60405180910390f35b6101a560048036038101906101a09190611e12565b610aca565b6040516101b29190611e3f565b60405180910390f35b6101d560048036038101906101d09190611e12565b610b09565b6040516101e29190611e3f565b60405180910390f35b6101f3610b48565b6040516102009190611e3f565b60405180910390f35b610223600480360381019061021e9190611e5a565b610b6e565b005b61022d610d35565b60405161023a9190611f58565b60405180910390f35b61025d60048036038101906102589190611e12565b610dc3565b60405161026a9190611e3f565b60405180910390f35b61028d60048036038101906102889190611ca0565b610e02565b6040516102a09796959493929190611f7a565b60405180910390f35b6102b1611084565b6040516102be9190611f58565b60405180910390f35b6102e160048036038101906102dc9190611ca0565b611112565b6040516102f49796959493929190612020565b60405180910390f35b61031760048036038101906103129190611ca0565b6114da565b60405161032b9897969594939291906120a4565b60405180910390f35b61033c6116e7565b6040516103499190611c85565b60405180910390f35b61035a6116f3565b6040516103679190611f58565b60405180910390f35b610378611781565b6040516103859190611c85565b60405180910390f35b6103a860048036038101906103a39190612137565b61178d565b005b6103b26119c8565b6040516103bf9190611c85565b60405180910390f35b3373ffffffffffffffffffffffffffffffffffffffff16600260009054906101000a900473ffffffffffffffffffffffffffffffffffffffff1673ffffffffffffffffffffffffffffffffffffffff1614610458576040517f08c379a000000000000000000000000000000000000000000000000000000000815260040161044f9061226e565b60405180910390fd5b61046260006119d5565b600061046e60006119eb565b90506000600760008773ffffffffffffffffffffffffffffffffffffffff1673ffffffffffffffffffffffffffffffffffffffff168152602001908152602001600020905060008160040154146104fa576040517f08c379a00000000000000000000000000000000000000000000000000000000081526004016104f1906122da565b60405180910390fd5b60018160040181905550848160010190816105159190612506565b50838160020190816105279190612506565b50858160030160006101000a81548173ffffffffffffffffffffffffffffffffffffffff021916908373ffffffffffffffffffffffffffffffffffffffff1602179055508181600001819055506103e8816006018190555060008160050160006101000a81548160ff021916908315150217905550828160070190816105ad9190612506565b506006869080600181540180825580915050600190039060005260206000200160009091909190916101000a81548173ffffffffffffffffffffffffffffffffffffffff021916908373ffffffffffffffffffffffffffffffffffffffff160217905550817ff5f39971dd62d9929e3a9feaa6bb77fe7c7da0001babff8a65a7e51ad0201c1986868985600401548660050160009054906101000a900460ff1687600601548a60405161066697969594939291906125d8565b60405180910390a2505050505050565b6000600680549050905090565b60608060006060600060606000600460008973ffffffffffffffffffffffffffffffffffffffff1673ffffffffffffffffffffffffffffffffffffffff168152602001908152602001600020600101600460008a73ffffffffffffffffffffffffffffffffffffffff1673ffffffffffffffffffffffffffffffffffffffff168152602001908152602001600020600201600460008b73ffffffffffffffffffffffffffffffffffffffff1673ffffffffffffffffffffffffffffffffffffffff16815260200190815260200160002060000154600460008c73ffffffffffffffffffffffffffffffffffffffff1673ffffffffffffffffffffffffffffffffffffffff168152602001908152602001600020600301600460008d73ffffffffffffffffffffffffffffffffffffffff1673ffffffffffffffffffffffffffffffffffffffff16815260200190815260200160002060040154600460008e73ffffffffffffffffffffffffffffffffffffffff1673ffffffffffffffffffffffffffffffffffffffff168152602001908152602001600020600601600460008f73ffffffffffffffffffffffffffffffffffffffff1673ffffffffffffffffffffffffffffffffffffffff16815260200190815260200160002060050160009054906101000a900473ffffffffffffffffffffffffffffffffffffffff1686805461088d90612329565b80601f01602080910402602001604051908101604052809291908181526020018280546108b990612329565b80156109065780601f106108db57610100808354040283529160200191610906565b820191906000526020600020905b8154815290600101906020018083116108e957829003601f168201915b5050505050965085805461091990612329565b80601f016020809104026020016040519081016040528092919081815260200182805461094590612329565b80156109925780601f1061096757610100808354040283529160200191610992565b820191906000526020600020905b81548152906001019060200180831161097557829003601f168201915b505050505095508380546109a590612329565b80601f01602080910402602001604051908101604052809291908181526020018280546109d190612329565b8015610a1e5780601f106109f357610100808354040283529160200191610a1e565b820191906000526020600020905b815481529060010190602001808311610a0157829003601f168201915b50505050509350818054610a3190612329565b80601f0160208091040260200160405190810160405280929190818152602001828054610a5d90612329565b8015610aaa5780601f10610a7f57610100808354040283529160200191610aaa565b820191906000526020600020905b815481529060010190602001808311610a8d57829003601f168201915b505050505091509650965096509650965096509650919395979092949650565b60038181548110610ada57600080fd5b906000526020600020016000915054906101000a900473ffffffffffffffffffffffffffffffffffffffff1681565b60068181548110610b1957600080fd5b906000526020600020016000915054906101000a900473ffffffffffffffffffffffffffffffffffffffff1681565b600260009054906101000a900473ffffffffffffffffffffffffffffffffffffffff1681565b6000600760003373ffffffffffffffffffffffffffffffffffffffff1673ffffffffffffffffffffffffffffffffffffffff16815260200190815260200160002090508060050160009054906101000a900460ff1615610c03576040517f08c379a0000000000000000000000000000000000000000000000000000000008152600401610bfa906126a8565b60405180910390fd5b6000816004015403610c4a576040517f08c379a0000000000000000000000000000000000000000000000000000000008152600401610c4190612714565b60405180910390fd5b60018160050160006101000a81548160ff0219169083151502179055508181600601819055506005339080600181540180825580915050600190039060005260206000200160009091909190916101000a81548173ffffffffffffffffffffffffffffffffffffffff021916908373ffffffffffffffffffffffffffffffffffffffff1602179055508060040154600460008573ffffffffffffffffffffffffffffffffffffffff1673ffffffffffffffffffffffffffffffffffffffff1681526020019081526020016000206004016000828254610d299190612763565b92505081905550505050565b60606003805480602002602001604051908101604052809291908181526020018280548015610db957602002820191906000526020600020905b8160009054906101000a900473ffffffffffffffffffffffffffffffffffffffff1673ffffffffffffffffffffffffffffffffffffffff1681526020019060010190808311610d6f575b5050505050905090565b60058181548110610dd357600080fd5b906000526020600020016000915054906101000a900473ffffffffffffffffffffffffffffffffffffffff1681565b6004602052806000526040600020600091509050806000015490806001018054610e2b90612329565b80601f0160208091040260200160405190810160405280929190818152602001828054610e5790612329565b8015610ea45780601f10610e7957610100808354040283529160200191610ea4565b820191906000526020600020905b815481529060010190602001808311610e8757829003601f168201915b505050505090806002018054610eb990612329565b80601f0160208091040260200160405190810160405280929190818152602001828054610ee590612329565b8015610f325780601f10610f0757610100808354040283529160200191610f32565b820191906000526020600020905b815481529060010190602001808311610f1557829003601f168201915b505050505090806003018054610f4790612329565b80601f0160208091040260200160405190810160405280929190818152602001828054610f7390612329565b8015610fc05780601f10610f9557610100808354040283529160200191610fc0565b820191906000526020600020905b815481529060010190602001808311610fa357829003601f168201915b5050505050908060040154908060050160009054906101000a900473ffffffffffffffffffffffffffffffffffffffff169080600601805461100190612329565b80601f016020809104026020016040519081016040528092919081815260200182805461102d90612329565b801561107a5780601f1061104f5761010080835404028352916020019161107a565b820191906000526020600020905b81548152906001019060200180831161105d57829003601f168201915b5050505050905087565b6060600580548060200260200160405190810160405280929190818152602001828054801561110857602002820191906000526020600020905b8160009054906101000a900473ffffffffffffffffffffffffffffffffffffffff1673ffffffffffffffffffffffffffffffffffffffff16815260200190600101908083116110be575b5050505050905090565b600060608060006060600080600760008973ffffffffffffffffffffffffffffffffffffffff1673ffffffffffffffffffffffffffffffffffffffff16815260200190815260200160002060000154600760008a73ffffffffffffffffffffffffffffffffffffffff1673ffffffffffffffffffffffffffffffffffffffff168152602001908152602001600020600101600760008b73ffffffffffffffffffffffffffffffffffffffff1673ffffffffffffffffffffffffffffffffffffffff168152602001908152602001600020600201600760008c73ffffffffffffffffffffffffffffffffffffffff1673ffffffffffffffffffffffffffffffffffffffff16815260200190815260200160002060030160009054906101000a900473ffffffffffffffffffffffffffffffffffffffff16600760008d73ffffffffffffffffffffffffffffffffffffffff1673ffffffffffffffffffffffffffffffffffffffff168152602001908152602001600020600701600760008e73ffffffffffffffffffffffffffffffffffffffff1673ffffffffffffffffffffffffffffffffffffffff16815260200190815260200160002060040154600760008f73ffffffffffffffffffffffffffffffffffffffff1673ffffffffffffffffffffffffffffffffffffffff16815260200190815260200160002060050160009054906101000a900460ff1685805461132990612329565b80601f016020809104026020016040519081016040528092919081815260200182805461135590612329565b80156113a25780601f10611377576101008083540402835291602001916113a2565b820191906000526020600020905b81548152906001019060200180831161138557829003601f168201915b505050505095508480546113b590612329565b80601f01602080910402602001604051908101604052809291908181526020018280546113e190612329565b801561142e5780601f106114035761010080835404028352916020019161142e565b820191906000526020600020905b81548152906001019060200180831161141157829003601f168201915b5050505050945082805461144190612329565b80601f016020809104026020016040519081016040528092919081815260200182805461146d90612329565b80156114ba5780601f1061148f576101008083540402835291602001916114ba565b820191906000526020600020905b81548152906001019060200180831161149d57829003601f168201915b505050505092509650965096509650965096509650919395979092949650565b600760205280600052604060002060009150905080600001549080600101805461150390612329565b80601f016020809104026020016040519081016040528092919081815260200182805461152f90612329565b801561157c5780601f106115515761010080835404028352916020019161157c565b820191906000526020600020905b81548152906001019060200180831161155f57829003601f168201915b50505050509080600201805461159190612329565b80601f01602080910402602001604051908101604052809291908181526020018280546115bd90612329565b801561160a5780601f106115df5761010080835404028352916020019161160a565b820191906000526020600020905b8154815290600101906020018083116115ed57829003601f168201915b5050505050908060030160009054906101000a900473ffffffffffffffffffffffffffffffffffffffff16908060040154908060050160009054906101000a900460ff169080600601549080600701805461166490612329565b80601f016020809104026020016040519081016040528092919081815260200182805461169090612329565b80156116dd5780601f106116b2576101008083540402835291602001916116dd565b820191906000526020600020905b8154815290600101906020018083116116c057829003601f168201915b5050505050905088565b60018060000154905081565b6060600680548060200260200160405190810160405280929190818152602001828054801561177757602002820191906000526020600020905b8160009054906101000a900473ffffffffffffffffffffffffffffffffffffffff1673ffffffffffffffffffffffffffffffffffffffff168152602001906001019080831161172d575b5050505050905090565b60008060000154905081565b3373ffffffffffffffffffffffffffffffffffffffff16600260009054906101000a900473ffffffffffffffffffffffffffffffffffffffff1673ffffffffffffffffffffffffffffffffffffffff161461181d576040517f08c379a000000000000000000000000000000000000000000000000000000000815260040161181490612809565b60405180910390fd5b61182760016119d5565b600061183360016119eb565b90506000600460008873ffffffffffffffffffffffffffffffffffffffff1673ffffffffffffffffffffffffffffffffffffffff1681526020019081526020016000209050858160010190816118899190612506565b508481600201908161189b9190612506565b50818160000181905550838160030190816118b69190612506565b5060008160040181905550868160050160006101000a81548173ffffffffffffffffffffffffffffffffffffffff021916908373ffffffffffffffffffffffffffffffffffffffff160217905550828160060190816119159190612506565b506003879080600181540180825580915050600190039060005260206000200160009091909190916101000a81548173ffffffffffffffffffffffffffffffffffffffff021916908373ffffffffffffffffffffffffffffffffffffffff160217905550817fd297f12b256bb8485a6013fb5e302017018123e99a0ebb20756c09e1707b4b9087878785600401548c896040516119b796959493929190612829565b60405180910390a250505050505050565b6000600380549050905090565b6001816000016000828254019250508190555050565b600081600001549050919050565b6000604051905090565b600080fd5b600080fd5b600073ffffffffffffffffffffffffffffffffffffffff82169050919050565b6000611a3882611a0d565b9050919050565b611a4881611a2d565b8114611a5357600080fd5b50565b600081359050611a6581611a3f565b92915050565b600080fd5b600080fd5b6000601f19601f8301169050919050565b7f4e487b7100000000000000000000000000000000000000000000000000000000600052604160045260246000fd5b611abe82611a75565b810181811067ffffffffffffffff82111715611add57611adc611a86565b5b80604052505050565b6000611af06119f9565b9050611afc8282611ab5565b919050565b600067ffffffffffffffff821115611b1c57611b1b611a86565b5b611b2582611a75565b9050602081019050919050565b82818337600083830152505050565b6000611b54611b4f84611b01565b611ae6565b905082815260208101848484011115611b7057611b6f611a70565b5b611b7b848285611b32565b509392505050565b600082601f830112611b9857611b97611a6b565b5b8135611ba8848260208601611b41565b91505092915050565b60008060008060808587031215611bcb57611bca611a03565b5b6000611bd987828801611a56565b945050602085013567ffffffffffffffff811115611bfa57611bf9611a08565b5b611c0687828801611b83565b935050604085013567ffffffffffffffff811115611c2757611c26611a08565b5b611c3387828801611b83565b925050606085013567ffffffffffffffff811115611c5457611c53611a08565b5b611c6087828801611b83565b91505092959194509250565b6000819050919050565b611c7f81611c6c565b82525050565b6000602082019050611c9a6000830184611c76565b92915050565b600060208284031215611cb657611cb5611a03565b5b6000611cc484828501611a56565b91505092915050565b600081519050919050565b600082825260208201905092915050565b60005b83811015611d07578082015181840152602081019050611cec565b60008484015250505050565b6000611d1e82611ccd565b611d288185611cd8565b9350611d38818560208601611ce9565b611d4181611a75565b840191505092915050565b611d5581611a2d565b82525050565b600060e0820190508181036000830152611d75818a611d13565b90508181036020830152611d898189611d13565b9050611d986040830188611c76565b8181036060830152611daa8187611d13565b9050611db96080830186611c76565b81810360a0830152611dcb8185611d13565b9050611dda60c0830184611d4c565b98975050505050505050565b611def81611c6c565b8114611dfa57600080fd5b50565b600081359050611e0c81611de6565b92915050565b600060208284031215611e2857611e27611a03565b5b6000611e3684828501611dfd565b91505092915050565b6000602082019050611e546000830184611d4c565b92915050565b60008060408385031215611e7157611e70611a03565b5b6000611e7f85828601611a56565b9250506020611e9085828601611dfd565b9150509250929050565b600081519050919050565b600082825260208201905092915050565b6000819050602082019050919050565b611ecf81611a2d565b82525050565b6000611ee18383611ec6565b60208301905092915050565b6000602082019050919050565b6000611f0582611e9a565b611f0f8185611ea5565b9350611f1a83611eb6565b8060005b83811015611f4b578151611f328882611ed5565b9750611f3d83611eed565b925050600181019050611f1e565b5085935050505092915050565b60006020820190508181036000830152611f728184611efa565b905092915050565b600060e082019050611f8f600083018a611c76565b8181036020830152611fa18189611d13565b90508181036040830152611fb58188611d13565b90508181036060830152611fc98187611d13565b9050611fd86080830186611c76565b611fe560a0830185611d4c565b81810360c0830152611ff78184611d13565b905098975050505050505050565b60008115159050919050565b61201a81612005565b82525050565b600060e082019050612035600083018a611c76565b81810360208301526120478189611d13565b9050818103604083015261205b8188611d13565b905061206a6060830187611d4c565b818103608083015261207c8186611d13565b905061208b60a0830185611c76565b61209860c0830184612011565b98975050505050505050565b6000610100820190506120ba600083018b611c76565b81810360208301526120cc818a611d13565b905081810360408301526120e08189611d13565b90506120ef6060830188611d4c565b6120fc6080830187611c76565b61210960a0830186612011565b61211660c0830185611c76565b81810360e08301526121288184611d13565b90509998505050505050505050565b600080600080600060a0868803121561215357612152611a03565b5b600061216188828901611a56565b955050602086013567ffffffffffffffff81111561218257612181611a08565b5b61218e88828901611b83565b945050604086013567ffffffffffffffff8111156121af576121ae611a08565b5b6121bb88828901611b83565b935050606086013567ffffffffffffffff8111156121dc576121db611a08565b5b6121e888828901611b83565b925050608086013567ffffffffffffffff81111561220957612208611a08565b5b61221588828901611b83565b9150509295509295909350565b7f4f6e6c79206f7267616e697a65722063616e2063726561746520766f74657200600082015250565b6000612258601f83611cd8565b915061226382612222565b602082019050919050565b600060208201905081810360008301526122878161224b565b9050919050565b7f566f74657220616c726561647920657869737473000000000000000000000000600082015250565b60006122c4601483611cd8565b91506122cf8261228e565b602082019050919050565b600060208201905081810360008301526122f3816122b7565b9050919050565b7f4e487b7100000000000000000000000000000000000000000000000000000000600052602260045260246000fd5b6000600282049050600182168061234157607f821691505b602082108103612354576123536122fa565b5b50919050565b60008190508160005260206000209050919050565b60006020601f8301049050919050565b600082821b905092915050565b6000600883026123bc7fffffffffffffffffffffffffffffffffffffffffffffffffffffffffffffffff8261237f565b6123c6868361237f565b95508019841693508086168417925050509392505050565b6000819050919050565b60006124036123fe6123f984611c6c565b6123de565b611c6c565b9050919050565b6000819050919050565b61241d836123e8565b6124316124298261240a565b84845461238c565b825550505050565b600090565b612446612439565b612451818484612414565b505050565b5b818110156124755761246a60008261243e565b600181019050612457565b5050565b601f8211156124ba5761248b8161235a565b6124948461236f565b810160208510156124a3578190505b6124b76124af8561236f565b830182612456565b50505b505050565b600082821c905092915050565b60006124dd600019846008026124bf565b1980831691505092915050565b60006124f683836124cc565b9150826002028217905092915050565b61250f82611ccd565b67ffffffffffffffff81111561252857612527611a86565b5b6125328254612329565b61253d828285612479565b600060209050601f831160018114612570576000841561255e578287015190505b61256885826124ea565b8655506125d0565b601f19841661257e8661235a565b60005b828110156125a657848901518255600182019150602085019450602081019050612581565b868310156125c357848901516125bf601f8916826124cc565b8355505b6001600288020188555050505b505050505050565b600060e08201905081810360008301526125f2818a611d13565b905081810360208301526126068189611d13565b90506126156040830188611d4c565b6126226060830187611c76565b61262f6080830186612011565b61263c60a0830185611c76565b81810360c083015261264e8184611d13565b905098975050505050505050565b7f596f75206861766520616c726561647920766f74656400000000000000000000600082015250565b6000612692601683611cd8565b915061269d8261265c565b602082019050919050565b600060208201905081810360008301526126c181612685565b9050919050565b7f596f752068617665206e6f20726967687420746f20766f746500000000000000600082015250565b60006126fe601983611cd8565b9150612709826126c8565b602082019050919050565b6000602082019050818103600083015261272d816126f1565b9050919050565b7f4e487b7100000000000000000000000000000000000000000000000000000000600052601160045260246000fd5b600061276e82611c6c565b915061277983611c6c565b925082820190508082111561279157612790612734565b5b92915050565b7f4f6e6c79206f7267616e697a65722063616e20617574686f72697a656420636160008201527f6e64696461746500000000000000000000000000000000000000000000000000602082015250565b60006127f3602783611cd8565b91506127fe82612797565b604082019050919050565b60006020820190508181036000830152612822816127e6565b9050919050565b600060c08201905081810360008301526128438189611d13565b905081810360208301526128578188611d13565b9050818103604083015261286b8187611d13565b905061287a6060830186611c76565b6128876080830185611d4c565b81810360a08301526128998184611d13565b905097965050505050505056fea2646970667358221220531c4b39fbe5cc165714d96d0a5393df56677561ac17810387f90095171704cd64736f6c634300081b0033",
  "linkReferences": {},
  "deployedLinkReferences": {}
}